:020000040800F2
:10000000184A00206D02000801340008033400087B
:10001000073400080B3400080F340008000000000B
:10002000000000000000000000000000E1010008E6
:100030001534000800000000150200080313000832
:10004000830200088302000883020008830200087C
:10005000830200088302000883020008830200086C
:10006000830200088302000883020008830200085C
:10007000830200088302000883020008830200084C
:10008000830200088302000883020008830200083C
:1000900083020008830200088302000893370008E7
:1000A00083020008A93700088302000883020008C1
:1000B0001B34000883020008830200088302000842
:1000C00083020008830200088302000883020008FC
:1000D00083020008830200088302000883020008EC
:1000E00083020008830200088302000883020008DC
:1000F00083020008830200088302000883020008CC
:1001000083020008830200088302000883020008BB
:1001100083020008830200088302000883020008AB
:10012000830200088302000883020008830200089B
:1001300000F002F800F045F80AA090E8000C8244B4
:100140008344AAF10107DA4501D100F03AF8AFF291
:10015000090EBAE80F0013F0010F18BFFB1A43F0A5
:1001600001031847B44D0000D44D0000103A24BFDD
:1001700078C878C1FAD8520724BF30C830C144BF0C
:1001800004680C607047000000230024002500264E
:10019000103A28BF78C1FBD8520728BF30C148BFEA
:1001A0000B6070471FB504F087FE04F0C7FD040024
:1001B0000020002104F06AFE401C60601FBD10B5E5
:1001C00010BD04F02BFE1146FFF7ECFF03F0E0F842
:1001D00004F049FE03B4FFF7F2FF03BC04F04EFE47
:1001E0001A4B19680868B0E8F00F80F309884FF0DF
:1001F000000080F311884EF00D0E704700000000E3
:1002000003480068006880F3088862B600DF00BF1A
:1002100008ED00E0EFF309800C4B1A6820E9F00FBD
:10022000106008B54FF0BF0080F3118800F08EFD1C
:100230004FF0000080F31188BDE808401968086895
:10024000B0E8F00F80F30988704700BF000000207D
:1002500001B44FF0BF0080F3118801BC704701B4B6
:100260004FF0000080F3118801BC70470848004738
:10027000FEE7FEE7FEE7FEE7FEE7FEE7FEE7FEE756
:10028000FEE7FEE703480449024A044B70470000BA
:100290003101000818460020184A002018460020A6
:1002A00000F1080141604FF0FF31816000F1080169
:1002B000C160016100210160704700210161704748
:1002C000426853684B6043688B6053689960516023
:1002D0004160086103685B1C0360704710B502460B
:1002E0000B685C1C01D1106907E002F1080000E016
:1002F0004068446824689C42FAD944684C604C6861
:10030000A160886041600A611468641C146010BDBB
:10031000D0E901329A60D0E901235A6001694A6844
:10032000824201D182684A60002202610A68521E3C
:100330000A6070472DE9F04105460E464FF000086F
:100340004DB34C2000F00CFF044624B305FB06F02F
:10035000471C384600F004FF20602068E0B12068A8
:1003600005FB060060600020A0632068A060681E96
:10037000216800FB0610E060E56326644FF0FF3063
:100380006064A06404F11000FFF78AFF04F1240008
:10039000FFF786FFA04602E0204600F042FF4046FD
:1003A000BDE8F08110B5044600F096FF11E0606AE8
:1003B00008B9012000E0002050B904F1240000F049
:1003C00052FE08B100F0B4FEA06C401EA06400E034
:1003D00002E0A06C0028EADC00BF4FF0FF30A06410
:1003E00000F083FF00F078FF11E0206908B90120D8
:1003F00000E0002050B904F1100000F034FE08B114
:1004000000F096FE606C401E606400E002E0606CEC
:100410000028EADC00BF4FF0FF30606400F065FFA9
:1004200010BD70B5044600F057FFA06BE16B884229
:1004300001D1012000E00020054600F056FF2846CB
:1004400070BD70B504460E461546206C08B37DB9E4
:100450003146226CA06804F0A2FB216CA06808441D
:10046000A060D4E90110884213D32068A06010E096
:100470003146226CE06804F092FB216CE068401A7F
:10048000E0602168E068884203D2216C6068401A0D
:10049000E060A06B401CA06370BDFFB583B0044654
:1004A0000E461D46002700BF00F016FFA06BE16B53
:1004B000884217D22A4631462046FFF7C2FF606ABB
:1004C00008B9012000E0002038B904F1240000F050
:1004D000CAFD012801D100F0F9FE00F006FF01205D
:1004E00007B0F0BD059818B900F0FFFE0020F7E74F
:1004F0001FB901A800F0E7FD012700F0F6FE00F0AB
:1005000077FB00F0E9FE606C401C00D16064A06CD9
:10051000401C00D1A06400F0E8FE05A901A800F08D
:10052000D9FDC0B92046FFF77CFF70B104F110007F
:10053000059900F07AFD2046FFF734FF00F0B1FA8C
:100540000028B1D100F0C2FEAEE72046FFF72AFF37
:1005500000F0A7FAA8E72046FFF724FF00F0A1FA71
:100560000020BDE72DE9F0470446884616461F46A1
:100570004FF00009FFF76CFEA06BE16B88421AD2C6
:100580003A4641462046FFF75CFFA06C401C0DD167
:10059000606A08B9012000E0002050B904F124008D
:1005A00000F061FD28B10120306002E0A06C401C29
:1005B000A064012500E00025FFF751FE2846BDE8B4
:1005C000F08770B5044600F087FEA06B08B90120E3
:1005D00000E00020054600F088FE284670BD70B59A
:1005E00004460D46206870B1216CE0680844E06064
:1005F0006168E068884201D32068E0602846226C88
:10060000E16804F0CCFA70BD2DE9FF4182B00446E8
:100610000F461D464FF0000800BF00F05DFEA06BC6
:1006200058B3E66839462046FFF7D9FF8DB9A06B6D
:10063000401EA063206908B9012000E00020B0B985
:1006400004F1100000F00FFD012810D100F03EFE73
:100650000DE0E660606A08B9012000E0002030B9D2
:1006600004F1240000F0FFFC08B100F02FFE00F0C0
:100670003CFE012006B0BDE8F081049818B900F0F6
:1006800034FE0020F6E7B8F1000F04D1684600F010
:100690001AFD4FF0010800F028FE00F0A9FA00F062
:1006A0001BFE606C401C00D16064A06C401C00D13B
:1006B000A06400F01AFE04A9684600F00BFDC0B962
:1006C0002046FFF77EFF70B104F12400049900F08A
:1006D000ACFC2046FFF766FE00F0E3F900289CD151
:1006E00000F0F4FD99E72046FFF75CFE00F0D9F931
:1006F00093E72046FFF756FE00F0D3F90020B9E754
:100700002DE9F04104460F4616464FF00008FFF76A
:100710009FFDA06BE0B139462046FFF760FFA06B5C
:10072000401EA063606C401C0DD1206908B90120F7
:1007300000E0002050B904F1100000F094FC28B152
:100740000120306002E0606C401C6064012500E024
:100750000025FFF784FD2846BDE8F08170B504460A
:1007600000F0BAFDA56B00F0C0FD284670BD014643
:10077000886B704710B50446206800F052FD204693
:1007800000F04FFD10BD01468A6B0AB9012200E05E
:1007900000221046704701468A6BCB6B9A4201D10A
:1007A000012200E0002210467047000010B500242E
:1007B00007E004EB8401F94A02EB8100FFF770FDCA
:1007C000641C052CF5D3F648FFF76AFDF548FFF7E2
:1007D00067FDF548FFF764FDF448FFF761FDF44855
:1007E000FFF75EFDEE48F3490860EE48F249086005
:1007F00010BD2DE9F04104460E4615469846069F69
:100800001022314604F1340004F06AFA002143203A
:100810000155052D00D30425E562201DFFF74DFD90
:1008200004F11800FFF749FD2461C5F10500A0613E
:100830006462BDE8F08170B505460E46442000F0C4
:100840008FFC044694B11EB9A80000F089FC00E0BA
:1008500030462063206B20B9204600F0E2FC0024E3
:1008600004E0A900A522206B04F010FA204670BD18
:100870002DE9FF4F81B0804615469946DDE90E7A95
:1008800028461099FFF7D7FF0446002C56D0681E63
:10089000216B01EB800B2BF0070B00953A462046AD
:1008A000119B0299FFF7A5FF4A464146584600F0C2
:1008B000E3FC2060BAF1000F01D0CAF8004000F05C
:1008C0000BFDBE480068401CBC490860BC4800687D
:1008D00040B9BB4804600846006801280CD1FFF706
:1008E00065FF09E0B748006830B9B5480068C06ADC
:1008F000B84201D8B2480460B349E06A0968884246
:1009000002D9B149E06A0860B0480068401CAF49AC
:100910000860AF49E06A0968884202D9AC49E06AD8
:100920000860E16A01EB81019C4A02EB8100211D14
:10093000FFF7C6FC012600F0D8FC01E04FF0FF36BF
:10094000012E09D19F48006830B19D480068C06AF7
:10095000B84201D200F0BAFC304605B0BDE8F08FD5
:1009600070B5044600F0B8FC95480068844200D198
:10097000002414B99248006800E020460546281D6E
:10098000FFF7C6FCA86A18B105F11800FFF7C0FC14
:10099000291D8648FFF794FC8E480068401C8D494D
:1009A00008608A480068401C8849086000F09DFC87
:1009B0008448006810B10CB900F088FC70BD70B5B7
:1009C00085480068002866D184480068401C834937
:1009D00008600846006808BB7649086876490968D7
:1009E000744A1160744908607D490968491C7C4A51
:1009F000116070490968096809B9012100E0002106
:100A000021B14FF0FF31774A116006E0694909686A
:100A1000C968CC68734A6168116000BF6F4800689C
:100A200070490968884235D300BF62480068006891
:100A300008B9012000E0002020B14FF0FF306949E3
:100A4000086026E05B480068C068C4686568634861
:100A50000068A84202D2634805601AE0201DFFF733
:100A600057FCA06A18B104F11800FFF751FC58496F
:100A7000E06A0968884202D95549E06A0860E16A7B
:100A800001EB8101454A02EB8100211DFFF718FCB3
:100A9000CBE700BF04E054480068401C524908609E
:100AA00070BD70B5002500F017FC4B480068401E73
:100AB000494908600846006800284CD13F48006852
:100AC000002848D0002621E03748C068C46804F1F7
:100AD0001800FFF71DFC201DFFF71AFC3C49E06AD7
:100AE0000968884202D93A49E06A0860E16A01EB84
:100AF00081012A4A02EB8100211DFFF7E1FB304909
:100B0000E06A0968C96A884200D30126264800685D
:100B100008B9012000E000200028D5D03248006844
:100B200060B106E0FFF74BFF2F480068401E2E49DA
:100B300008602D4800680028F4D10126012E03D05A
:100B40002A480068012805D10125002027490860AE
:100B500000F0BCFB00BF00F0C8FB284670BD10B51C
:100B600004461748006844601C480068844207D265
:100B700013480168091D10480068FFF7AFFB0CE03F
:100B80000F480168091D0B480068FFF7A7FB1548CF
:100B90000068844201D21348046010BDAC000020FC
:100BA0001001002024010020380100204C01002009
:100BB00060010020340000203800002008000020E0
:100BC0000000002018000020100000202C00002051
:100BD00014000020040000201C0000200C00002055
:100BE00028000020300000202000002024000020E9
:100BF000F8480068401CF749086070472DE9F0414B
:100C000004460F464FF00008FFF7F2FF2068C519B1
:100C1000F14920680968884209D92068A8420FD99B
:100C2000ED48006885420BD94FF0010808E02068C4
:100C3000A84203D8E8480068854201D94FF001086E
:100C40002560B8F1000F07D0E4480068001DFFF7E9
:100C50005FFB2846FFF783FFFFF723FF06460EB929
:100C600000F034FBBDE8F08170B5044600267CB18D
:100C7000FFF7BEFFD84800680519D8480068001D76
:100C8000FFF746FB2846FFF76AFFFFF70AFF064615
:100C90000EB900F01BFB70BD70B5044600F01CFBE4
:100CA00014B9CE48006800E020460646F56A00F018
:100CB0001CFB284670BD2DE9F04106460D464FF05D
:100CC0000008052D00D3042500F006FBC34800688A
:100CD000864200D1002616B9C048006800E03046C0
:100CE0000446E76AAF422DD0BD4203D92EB14FF082
:100CF000010802E00EB94FF00108E562C5F10500F8
:100D0000A06107EB8701B64A02EB81016069884266
:100D100013D1201DFFF7FCFAB249E06A0968884246
:100D200002D9B049E06A0860E16A01EB8101AC4A8E
:100D300002EB8100211DFFF7C3FAB8F1010F01D1C9
:100D400000F0C4FA00F0D1FABDE8F081A1480068D3
:100D500018B10120A449086025E004E0A14800681A
:100D6000401EA04908609F48006800EB80009C4935
:100D700051F820000028F1D09A49096801EB81015F
:100D8000974A02EB810041684968416000F108011F
:100D900042688A4202D14168496841604168C96835
:100DA0008E4A116000BF704770B5044600F094FA97
:100DB0008A480068844200D1002414B9874800683A
:100DC00000E020460546281DFFF7A2FAA86A18B1E0
:100DD00005F11800FFF79CFA291D8448FFF770FA07
:100DE00000F083FA7CB98248006810B100F06EFA16
:100DF00009E080480068012803D100207749086095
:100E000001E0FFF7A3FF70BD10B5014600200A46C0
:100E1000764C5369A34201D1012300E0002383B142
:100E2000754C936AA34201D1012300E00023012BFA
:100E300007D0936A0BB9012300E00023012B00D1F6
:100E4000012010BD70B505462C4644B363480068C8
:100E5000844224D000F040FA2046FFF7D5FF012855
:100E60001BD1201DFFF754FA5E49E06A09688842E9
:100E700002D95C49E06A0860E16A01EB8101584AE5
:100E800002EB8100211DFFF71BFA5449E06A096853
:100E9000C96A884201D300F019FA00F026FA70BD41
:100EA00070B5054600262C462046FFF7ADFF012809
:100EB00026D148480068F0B94849E06A0968C96A1B
:100EC000884201D3012000E000200646201DFFF7E4
:100ED0001FFA4449E06A0968884202D94149E06A38
:100EE0000860E16A01EB81013D4A02EB8100211DAE
:100EF000FFF7E6F904E004F118013F48FFF7E0F9D5
:100F0000304670BD10B50446206B00F08AF92046CB
:100F100000F087F910BD70B53848006818B3FFF7C6
:100F200067FE3748006808B9012000E00020054648
:100F3000FFF7B7FDBDB900F0CFF93148C068C4680C
:100F4000201DFFF7E5F92B480068401E294908607D
:100F50002A480068401E2949086000F0C6F920466A
:100F6000FFF7D0FF00BF70BD00BFFFF7D4FF1C48E4
:100F700000680128F9D900F0A9F9F6E71FB50020AB
:100F8000009001900290034680221EA103901F480A
:100F9000FFF76EFC0446012C09D1FFF759F9012037
:100FA0001349086000200C49086000F079F91FBD62
:100FB00010B5FFF74DF900200D49086000F085F9E4
:100FC00010BD10B500F088F90348046800F08DF9F1
:100FD000204610BD1C0000200C0000200000002056
:100FE000AC0000201400002024000020600100203C
:100FF0001800002008000020380100200400002014
:101000004C01002049444C4500000000690F0008D5
:1010100070B50025FFF71CF947480468FFF71FF972
:10102000204670BD45480068704770B506460C46BE
:101030004348016818313046FFF750F940480068CE
:10104000001DFFF765F9601C06D13D480168091DC8
:101050003C48FFF735F905E0374800680519284690
:10106000FFF77DFD70BD70B50646F068C46804F1F9
:101070001800FFF74DF934480068A0B9201DFFF7AC
:1010800047F93249E06A0968884202D92F49E06A83
:101090000860E16A01EB81012D4A02EB8100211D0C
:1010A000FFF70EF904E004F118012A48FFF708F9E8
:1010B0002349E06A0968C96A884201D3012500E032
:1010C0000025284670BD2449096801601A4909684D
:1010D0004160704770B504460D4600F0FDF8286881
:1010E000401C01D100261FE01B4920680968884286
:1010F00006D0114960680968884201D8012613E0CA
:101100000D4960680968081A296888420BD2286866
:10111000094A61681268511A401A28602046FFF790
:10112000D2FF002600E0012600F0DFF8304670BD57
:1011300001200A49086070470C00002008000020C8
:1011400000000020600100201C000020140000208E
:10115000AC000020380100202800002024000020DE
:101160002DE9F04104464FF00008FFF741FD3D48EE
:10117000006898B93C493D4A1160002151604FF424
:1011800088413B4A51600021116037484FF4884143
:1011900041601146016001203249086044B11034B9
:1011A00014F0070F04D004F00700C0F10800044455
:1011B000002C31D0B4F5884F2ED22C4F384605681C
:1011C00001E02F462D686868A04202D228680028F6
:1011D000F7D1274885421FD0386800F110082868E9
:1011E00038606868001B202810D92E196868001B19
:1011F00070606C6071681D4800E0006802685268A9
:101200008A42FAD302683260066000BF19496868F2
:101210000968081A17490860FFF743FC4046BDE813
:10122000F08170B506463546B6B1103D2C46FFF745
:10123000DFFC61680D4800E00068026852688A427D
:10124000FAD30268226004600A49606809680844A9
:1012500008490860FFF725FC70BD06480068704724
:10126000704700004000002078010020440000206A
:101270004C0000203C000020001F4FF080730360F2
:10128000001F0160001F0023036014380260203833
:10129000704723484FF0E0214861072008617047FC
:1012A00010B52048006840F47F001E4908600846D9
:1012B000006840F07F400860FFF7EBFF00201A490C
:1012C0000860FEF79DFF002010BD70474FF0805072
:1012D00014491C390860704710B5FEF7B9FF124871
:1012E0000068401C1049086010BD10B50E48006829
:1012F000401E0D4908600846006808B9FEF7AFFFB8
:1013000010BD10B54FF0805006491C39086000240C
:10131000FEF79EFFFFF753FBFEF7A1FF10BD000095
:101320003F19010020ED00E0540000203149014345
:10133000314A1160704770B5002100230F22C47834
:101340000CB32D4C246804F4E064C4F5E064210A75
:10135000C1F10403CA40447804FA03F184781440CC
:1013600021430901254C0678A155047804F01F0596
:101370000124AC4005786D114FF0E02606EB8505A1
:10138000C5F8004109E0047804F01F050124AC40D1
:101390001B4D0678761145F8264070BD194A0A4063
:1013A0000243154B1B1F1A60704739B1124A121DB8
:1013B00012680243104B1B1D1A6006E00E4A121DF4
:1013C000126882430C4B1B1D1A607047042808D119
:1013D0004FF0E021096941F004014FF0E022116172
:1013E00007E04FF0E021096921F004014FF0E0220D
:1013F000116170470000FA050CED00E000E400E028
:1014000080E100E080FFFF1F10B50446CA48844217
:1014100008D10121042000F025FB0021042000F068
:1014200021FB46E0C548844208D10121082000F094
:1014300019FB0021082000F015FB3AE0C048844267
:1014400008D10121102000F00DFB0021102000F038
:1014500009FB2EE0BB48844208D10121202000F086
:1014600001FB0021202000F0FDFA22E0B648844272
:1014700008D10121402000F0F5FA0021402000F0C1
:10148000F1FA16E0B148844208D10121802000F031
:10149000E9FA0021802000F0E5FA0AE0AC48844235
:1014A00007D10121801500F0DDFA0021A01500F020
:1014B000D9FA10BD10B50121084600F0D3FA002179
:1014C000012000F0CFFA10BD2DE9F04102460025C1
:1014D0000026002000230024002791F803C00CF010
:1014E0000F0591F803C01CF0100F03D091F802C053
:1014F0004CEA0505B1F800C01CF0FF0F31D01468AC
:1015000000202BE04FF0010C0CFA00F3B1F800C002
:101510000CEA03069E4220D183004FF00F0C0CFA18
:1015200003F7BC4305FA03FC4CEA040491F803C03A
:10153000BCF1280F06D14FF0010C0CFA00FCC2F8E8
:1015400014C00AE091F803C0BCF1480F05D14FF078
:10155000010C0CFA00FCC2F810C0401C0828D1D3C2
:101560001460B1F800C0BCF1FF0F34DD54680020F6
:101570002EE000F1080C4FF0010808FA0CF3B1F866
:1015800000C00CEA03069E4221D183004FF00F0CED
:101590000CFA03F7BC4305FA03FC4CEA040491F887
:1015A00003C0BCF1280F05D100F1080C08FA0CF8B3
:1015B000C2F8148091F803C0BCF1480F07D100F1C4
:1015C000080C4FF0010808FA0CF8C2F81080401C13
:1015D0000828CED35460BDE8F0814FF6FF7101803A
:1015E000022181700421C170704702460020936877
:1015F0000B4201D0012000E00020704701468868BE
:1016000080B2704702460020D3680B4201D001200F
:1016100000E0002070470146C86880B27047016151
:101620007047416170470AB1016100E04161704754
:10163000C16070474FF480320A43826181618261E8
:1016400082698269704702460020424B18684FF653
:101650008073184040EA021008433E4B1860704700
:101660003D49C8617047F0B50A46002300240021B7
:10167000002500F00046B6F1004F02D1354EF16969
:1016800001E0344E7168C0F3034583B200F44016A4
:10169000B6F5401F08D121F070612E4E766826F015
:1016A00070662C4F7E6012E000F48016B6F5801F45
:1016B00006D1032606FA05F4A14341F0706106E065
:1016C000460D360103FA06F6B14341F0706122B1CE
:1016D000460D360103FA06F6314300F00046B6F136
:1016E000004F02D11B4EF16101E01A4E7160F0BD56
:1016F00030B500228B071C0F0F2303FA04F2154BA1
:1017000008338C1053F824309343124C08348D1056
:1017100044F8253023468C1053F824308C07240FCE
:1017200000FA04F423430B4C08348D1044F82530A0
:1017300030BD0A490860704700080140000C0140B4
:10174000001001400014014000180140001C01403D
:10175000002001400000014000002042DC00204247
:10176000DC48006840F00100DA490860084640683B
:10177000D9490840D749486008460068D749084019
:10178000D44908600846006820F4802008600846B4
:10179000406820F4FE0048604FF41F0088607047E6
:1017A000CC49096821F48031CA4A116011460968A0
:1017B00021F480211160B0F5803F03D0B0F5802F77
:1017C0000ED106E0C349096841F48031C14A116075
:1017D00007E0C049096841F4A021BE4A116000E059
:1017E00000BF00BF704710B5014600220023002053
:1017F0004A11012A02D1B74C236806E0022A02D11D
:10180000B44C236A01E0B34C636A01F01F02012467
:1018100094401C4201D0012000E0002010BD70B5B2
:1018200000240025002600BF3120FFF7DCFF06461C
:10183000641CB4F5A06F01D0002EF5D03120FFF765
:10184000D2FF08B1012500E00025284670BD014601
:101850000020A04A106820F0F80040EAC1001060A3
:1018600070479F490860704702460020994B5868AE
:1018700020F47C1042EA01031843964B58607047ED
:1018800097490866704701460020924A506820F048
:1018900003000843506070478E48406800F00C0019
:1018A0007047014600208B4A506820F0F000084342
:1018B0005060704701460020864A506820F4E0607E
:1018C00008435060704701460020824A506820F467
:1018D000605040EAC1005060704729B17D4A527A99
:1018E00002437C4B5A7206E07A4A527AC343DBB217
:1018F0001A40784B5A7270477A490860704701461F
:101900000020744A506820F44040084350607047FB
:101910000021754A11706F4A82F82010012802D008
:10192000042808D103E001216F4A117004E0052169
:101930006D4A117000E000BF00BF70476B4908603E
:1019400070476449096A0143624A116270476749F6
:1019500044390860704730B500210022002400237C
:101960005C4D6D6805F00C0121B1042905D00829F2
:1019700023D105E05E4D056022E05D4D05601FE06E
:10198000544D6D6805F47012524D6D6805F4803445
:10199000022505EB92421CB9564D554305600BE0FC
:1019A0004C4D6D6815F4003F03D0524D5543056012
:1019B00002E04F4D5543056002E04D4D056000BF0C
:1019C00000BF444D6D6805F0F00109094A4D6B5C9C
:1019D0000568DD4045603F4D6D6805F4E061090A2A
:1019E000454D6B5C4568DD4085603A4D6D6805F49A
:1019F0006051C90A404D6B5C4568DD40C560354D9E
:101A00006D6805F44041890B3C4D6B5CC568B5FBC6
:101A1000F3F5056130BD29B12E4A526902432D4BC1
:101A20005A6104E02B4A526982432A4B5A6170473B
:101A300029B1284A92690243264B9A6104E0254A5B
:101A400092698243234B9A61704729B1214AD26936
:101A50000243204BDA6104E01E4AD26982431D4BE7
:101A6000DA61704729B11B4AD2680243194BDA6028
:101A700004E0184AD2688243164BDA60704729B1F5
:101A8000144A12690243134B1A6104E0114A1269A5
:101A90008243104B1A6170471449403908607047FF
:101AA0000F49C86470470B49C87170470948406ABC
:101AB00040F0807007494862704701460020054A9F
:101AC00092680A4201D0012000E0002070470149DD
:101AD00088727047001002400000FFF8FFFFF6FE1A
:101AE00000004242D800424220100240800442429C
:101AF00000127A0000093D00580000206800002014
:101B000001460020FE4A106800F0380008431060CB
:101B10007047FB49096821F00801F94A1160114634
:101B20000968014311607047F549096821F0100107
:101B3000F34A116011460968014311607047F1488A
:101B4000EF494860F04848607047EE48EC4948600B
:101B5000ED4848607047EA48006940F08000E84975
:101B600008617047E648006940F08000E449086178
:101B700070470420E249C96801F00101012901D13F
:101B800001200EE0DE49C96811F0040F01D00220E7
:101B900007E0DB49C96811F0100F01D0032000E015
:101BA0000420704700B502460423FFF7E2FF034616
:101BB00003E0FFF7DEFF0346521E012B01D1002A8E
:101BC000F7D102B90523184600BD30B504460425F7
:101BD0004FF43020FFF7E6FF0546042D17D1C84823
:101BE000006940F00200C649086108464461006986
:101BF00040F0400008614FF43020FFF7D3FF054666
:101C0000BF48006941F6FD710840BD49086128469A
:101C100030BD10B504244FF43020FFF7C3FF044655
:101C2000042C16D1B648006940F00400B44908619C
:101C30000846006940F0400008614FF43020FFF78B
:101C4000B1FF0446AE48006941F6FB710840AC495B
:101C50000861204610BD00B502460423FFF789FF46
:101C6000034603E0FFF785FF0346521E012B01D117
:101C7000002AF7D102B90523184600BD10B5042487
:101C80004FF43020FFF7E7FF0446042C16D19C48A0
:101C9000006940F004009A4908610846006940F074
:101CA000400008614FF43020FFF7D5FF0446944808
:101CB000006941F6FB71084091490861204610BD5A
:101CC00000208F49C96911F0020F01D0012000E006
:101CD0000020704730B5A5250424FFF7F1FF00B1BF
:101CE00000254FF43020FFF75DFF0446042C3AD165
:101CF000844883498860844888600846006940F0C9
:101D0000200008610846006940F0400008614FF477
:101D10003020FFF747FF0446042C1BD178480069A8
:101D200041F6DF710840764908610846006940F0D5
:101D30001000086175480580E002FFF733FF044694
:101D4000052C10D06E48006941F6EF7108406C49CF
:101D5000086108E0052C06D06948006941F6EF717A
:101D6000084067490861204630BDF0B504460D467D
:101D700004260027F002FFF715FF0646042E22D1A5
:101D80005F48006940F001005D4908612580F0026C
:101D9000FFF708FF0646042E0ED1A71C280C38803A
:101DA000F002FFF7FFFE06465548006941F6FE7156
:101DB00008405349086106E05148006941F6FE7148
:101DC00008404F4908613046F0BD70B504460D46E5
:101DD0000426F002FFF7E6FE0646042E11D148481D
:101DE000006940F00100464908612580F002FFF7D4
:101DF000D9FE06464248006941F6FE710840404956
:101E00000861304670BD70B505460E460424E002F8
:101E1000FFF7C8FE0446042C17D13A4838498860B9
:101E2000394888600846006940F0100008612E803B
:101E3000E002FFF7B7FE0446052C06D030480069E3
:101E400041F6EF7108402E490861204670BD2DE92A
:101E5000F04304464FF6FF763746B046B1460425B8
:101E6000E443E6B2C4F30727C4F307484FEA146912
:101E7000E802FFF797FE0546042D40D1214820498E
:101E80008860214888600846006940F010000861B9
:101E9000FF2E06D01D4808300680E802FFF782FEBC
:101EA0000546042D08D1FF2F06D018480A300780B8
:101EB000E802FFF777FE0546042D0AD1B8F1FF0FBF
:101EC00007D012480C30A0F80080E802FFF76AFE45
:101ED0000546042D0AD1B9F1FF0F07D00B480E308B
:101EE000A0F80090E802FFF75DFE0546052D06D03C
:101EF0000348006941F6EF7108400149086107E0B5
:101F00000020024023016745AB89EFCD00F8FF1F99
:101F10002846BDE8F08330B5054604244FF4302050
:101F2000FFF740FE0446042C41D15F485F498860BA
:101F30005F4888600846006940F020000861084654
:101F4000006940F0400008614FF43020FFF72AFE9E
:101F50000446042C22D15548006941F6DF7108403F
:101F6000524908610846006940F0100008611DB13F
:101F700000205049088002E0A5204E4908804FF417
:101F80003020FFF70FFE0446052C10D047480069AB
:101F900041F6EF7108404549086108E0052C06D07C
:101FA0004248006941F6DF71084040490861204617
:101FB00030BDF0B505460E46174604243A483B4965
:101FC00088603B488860E002FFF7ECFD0446042C83
:101FD00019D13648006940F010003449086147F0D3
:101FE000F800304328433349891C0880E002FFF79A
:101FF000D9FD0446052C06D02C48006941F6EF7146
:1020000008402A4908612046F0BD2848C069800878
:1020100070472648006A704700202449096811F07B
:10202000200F01D0012000E00020704729B11F4A95
:10203000126902431D4B1A6104E01C4A1269824373
:102040001A4B1A61704701460020012908D1174A2E
:10205000D26912F0010F01D0012008E0002006E053
:10206000124AD2680A4201D0012000E000207047E5
:102070000E49C860704704200C49C96801F001018D
:10208000012901D101200EE00849C96811F0040FAF
:1020900001D0022007E00549C96811F0100F01D0F6
:1020A000032000E004207047230167450020024020
:1020B000AB89EFCD00F8FF1F002044490860091DDF
:1020C0000860091D0860091D086041483F49143136
:1020D0000860704700213D498279002A3AD00A46BB
:1020E000126803689A430B461A600A1D1268036857
:1020F0009A430B1D1A60027911440A6803681A4357
:102100000A60324A0832126803689A432F4B083338
:102110001A601A1D126803689A432C4B0C331A601C
:102120004279102A0ED11A1F126803681A43274BEE
:1021300008331A601A1D126803681A43234B0C33C4
:102140001A600DE02149427911440A6803681A4374
:102150000A6005E0027911440A6803689A430A603C
:1021600070470021016001710C21417100218171D2
:1021700070471649103109680143144A1032116042
:10218000704701460020114A143212680A4201D0F9
:10219000012000E0002070470C49143108607047AE
:1021A000014600200022094B1B6803EA0102074B8D
:1021B00014331B680B4202D00AB1012000E000205A
:1021C0007047024914310860704700000004014064
:1021D000FFFF0F0010B50446FE48844208D10121DC
:1021E000C014FFF73FFC0021E014FFF73BFCC4E004
:1021F000B4F1804F08D101210846FFF740FC0021CF
:102200000120FFF73CFCB8E0F348844208D10121EB
:102210000220FFF734FC00210220FFF730FCACE085
:10222000EE48844208D101210420FFF728FC002158
:102230000420FFF724FCA0E0E948844208D10121F2
:102240000820FFF71CFC00210820FFF718FC94E091
:10225000E448844208D101211020FFF710FC00213E
:102260001020FFF70CFC88E0DF48844208D10121F0
:102270002020FFF704FC00212020FFF700FC7CE079
:10228000DA48844208D101214014FFF7EBFB00211A
:102290006014FFF7E7FB70E0D548844209D10121C3
:1022A000C804FFF7DFFB00214FF40020FFF7DAFB43
:1022B00063E0D048844209D101210805FFF7D2FB31
:1022C00000214FF48010FFF7CDFB56E0CA4884424E
:1022D00009D101214805FFF7C5FB00214FF400108B
:1022E000FFF7C0FB49E0C548844208D101214020E6
:1022F000FFF7C5FB00214020FFF7C1FB3DE0C048D0
:10230000844208D101218020FFF7B9FB0021802001
:10231000FFF7B5FB31E0BB48844208D101218015AD
:10232000FFF7ADFB0021A015FFF7A9FB25E0B6489C
:10233000844209D101210804FFF794FB00214FF4E6
:102340008030FFF78FFB18E0B048844209D10121AB
:102350004804FFF787FB00214FF40030FFF782FBB2
:102360000BE0AB48844208D101218804FFF77AFBD7
:1023700000214FF48020FFF775FB10BD002202887A
:10238000944B98420ED0994B98420BD0B0F1804FAD
:1023900008D0914B984205D0904B984202D0904B78
:1023A000984204D14FF68F731A404B881A438D4BD5
:1023B000984207D08C4B984204D04FF6FF431A4006
:1023C000CB881A4302808B8883850B880385814BD9
:1023D00098420BD0854B984208D08B4B984205D041
:1023E0008A4B984202D08A4B984201D10B7A0386DD
:1023F00001238382704770B5002400220023058CDE
:102400004FF6FE7635400584028C8388048B4FF6A8
:102410008F752C40B51E2C400D882C43751E2A400C
:102420000D892A434D882A436A4DA8420BD06F4D2F
:10243000A84208D0744DA84205D0744DA84202D0DD
:10244000734DA84213D14FF6F7752A404D892A43A0
:102450004FF6FB752A408D882A434FF6FF652B40C7
:102460004FF6FF552B408D892B43CD892B4383801D
:102470000483CD888586028470BD70B50024002257
:102480000023058C4FF6EF7635400584028C838857
:10249000048B48F6FF752C404FF6FF452C400D8805
:1024A0002D0644EA15444FF6DF752A400D892D05A7
:1024B00042EA15424D882D0542EA1542454DA84293
:1024C00002D04A4DA8421BD14FF67F752A404D8954
:1024D0002D0542EA15424FF6BF752A408D882D051D
:1024E00042EA15424FF6FF352B404FF2FF752B4065
:1024F0008D89AD0443EA1543CD89AD0443EA154304
:1025000083800483CD880587028470BD70B5002464
:1025100000220023058C4FF6FF6635400584028CAF
:102520008388848B4FF68F752C404FF6FC752C40BA
:102530000D882C434FF6FF552A400D892D0642EA9F
:1025400015424D882D0642EA1542224DA84202D07E
:10255000264DA8421BD14FF2FF752A404D892D060A
:1025600042EA15424FF6FF352A408D882D0642EA91
:1025700015424EF6FF752B404DF6FF752B408D89A9
:102580002D0543EA1543CD892D0543EA1543838084
:102590008483CD888587028470BD70B500220023B6
:1025A0000024058C4EF6FF7635400584038C848824
:1025B000828B48F6FF752A404FF6FF452A400D886A
:1025C0002D0642EA15424DF6FF752B400D892D0769
:1025D00020E00000002C0140000400400008004002
:1025E000000C004000100040001400400034014086
:1025F000004C0140005001400054014000180040D0
:10260000001C004000200040004001400044014008
:102610000048014043EA15434D882D0743EA15431E
:10262000F84DA84202D0F84DA84206D14BF6FF75EE
:102630002C408D89AD0544EA154484808283CD8881
:10264000A0F84050038470BD828B4FF2FF331A40D4
:102650008283828B0B0642EA134282837047F0B575
:102660000C461546002200210026078C4EF6FF7C02
:1026700007EA0C070784828B018C27073E0C40F683
:10268000FF473A402F0642EA17421F0742EA174225
:10269000DC4FB8420ED0DC4FB8420BD0B0F1804FC7
:1026A00008D0DA4FB84205D0D94FB84202D0D94F3E
:1026B000B84206D14DF6FF77394046F4805739438A
:1026C00005E047F6FF57394044F480573943828389
:1026D0000184F0BD828B4FF6F3731A408283828BA4
:1026E0000A4382837047F0B50C461546002200214C
:1026F0000026078C4FF6FF6C07EA0C070784828BD5
:10270000018C27063E0C4FF60C773A401F0545EA30
:1027100017473A43BB4FB8420ED0BB4FB8420BD01D
:10272000B0F1804F08D0B94FB84205D0B84FB84289
:1027300002D0B84FB84206D14FF6FF57394046F4A1
:102740008077394305E04FF2FF57394044F48077F2
:10275000394382830184F0BD028B4FF2FF331A406C
:102760000283028B0B0642EA134202837047F0B5E4
:102770000C461546002200210026078C4FF6EF7C00
:1027800007EA0C070784028B018C27053E0C40F6F4
:10279000FF473A401F0742EA17422F0642EA174214
:1027A000984FB8420ED0984FB8420BD0B0F1804F3E
:1027B00008D0964FB84205D0954FB84202D0954FF9
:1027C000B84206D14FF6DF77394046F0100739435B
:1027D00005E04FF65F77394044F010073943028334
:1027E0000184F0BD028B4FF6F3731A400283028B13
:1027F0000A4302837047F0B50C46154600220021BB
:10280000068C4FF6FE773E400684028B018C4FF615
:102810000C7632401E0545EA16463243794EB042E8
:102820000ED0794EB0420BD0B0F1804F08D0774E29
:10283000B04205D0764EB04202D0764EB04206D1BC
:102840004FF6FD76314044F00106314305E04FF686
:10285000F576314044F00106314302830184F0BD36
:1028600070B505460C46674885420ED066488542DD
:102870000BD0B5F1804F08D06448854205D064483C
:10288000854202D06348854200D100E000BF208825
:1028900050B92389A28861882846FFF7ACFFE188F8
:1028A0002846FFF79FFF25E0208804280AD12389C6
:1028B000A28861882846FFF75AFFE1882846FFF77B
:1028C0004BFF17E0208808280AD12389A288618855
:1028D0002846FFF708FFE1882846FFF7FBFE09E0DE
:1028E0002389A28861882846FFF7B9FEE188284637
:1028F000FFF7AAFE70BD2DE9F04105460C46002603
:102900000127608808B9022600E00026A088012877
:1029100001D1022700E001272088A0B92389A288DD
:1029200061882846FFF767FFE1882846FFF75AFFCE
:1029300023893A4631462846FFF719FFE1882846A1
:10294000FFF70AFF13E02389A28861882846FFF772
:102950000EFFE1882846FFF7FFFE23893A463146FD
:102960002846FFF748FFE1882846FFF73BFFBDE810
:10297000F0810A884B881A438B881A43CB881A4304
:102980000B891A434B891A438B891A43A0F84420B8
:1029900070474FF6FF71818000210180C180418026
:1029A000017270470021018041808180C1800181D6
:1029B00041818181C18170470021018041800121D5
:1029C00081800021C1800181704700210180418008
:1029D0008180C180018141818181704721B102885C
:1029E00042F00102028004E002884FF6FE731A40B2
:1029F0000280704781B1B0F8442042F40042A0F850
:102A000044200FE0002C014000340140000400404D
:102A100000080040000C0040B0F84420C2F30E0251
:102A2000A0F84420704710B51AB183890B43838105
:102A300004E08389CC43A4B22340838110BD81820A
:102A4000704741EA0203A0F84830704710B51AB148
:102A500083890B43838104E08389CC43A4B2234060
:102A6000838110BD01894FF6F872114001817047D2
:102A70000A46002101894FF68F73194011430181E5
:102A8000704730B504460D4629462046FFF7F0FF53
:102A9000208940F00700208130BD2DE9F041044637
:102AA0000D4616461F46602D06D13B460122314693
:102AB0002046FFF75CFE05E03B46012231462046FA
:102AC000FFF799FE29462046FFF7D2FF208940F004
:102AD00007002081BDE8F08130B50C460021018956
:102AE000C9B21D0642EA154525432943018130BD7F
:102AF0002DE9F04105460E46174698460024434608
:102B00003A4631462846FFF7E7FF2C894FF6F87022
:102B1000044044F007044FF68F70044044F0700402
:102B20002C81BDE8F081F0B504460D4616461F46DF
:102B30003B46324629462046FFF7CEFF208940F427
:102B400080402081F0BD0185828270470A460021C5
:102B500001884FF68F731940114301807047F0B51B
:102B60000C4615461E460021002200230189028BD7
:102B7000038C4FF6F877394021434FF6FC473A4033
:102B800040F201173A434FF6DD773B40370545EAFF
:102B900017473B43018102830384F0BD0A460021AD
:102BA000018B4FF68F7319401143018370470A461A
:102BB0000021018B48F6FF731940130641EA1341C7
:102BC000018370470A460021818B4FF68F731940AD
:102BD0001143818370470A460021818B48F6FF73B9
:102BE0001940130641EA13418183704721B10288DD
:102BF00042F08002028004E002884FF67F731A40A0
:102C00000280704721B1828842F00402828004E091
:102C100082884FF6FB731A408280704721B1828808
:102C200042F00802828004E082884FF6F7731A406F
:102C30008280704721B1828842F00102828004E0E4
:102C400082884FF6FE731A40828070470A46002140
:102C5000018B4FF6F77319401143018370470A4601
:102C60000021018B4FF2FF731940130641EA134113
:102C7000018370470A460021818B4FF6F773194094
:102C80001143818370470A460021818B4FF2FF7305
:102C90001940130641EA1341818370470A46002117
:102CA000018B4FF6FB7319401143018370470A46AD
:102CB0000021018B4FF6FF331940130641EA1341FF
:102CC000018370470A460021818B4FF6FB73194040
:102CD0001143818370470A460021818B4FF6FF33F1
:102CE0001940130641EA1341818370470A460021C7
:102CF000018B4FF67F7319401143018370470A46D9
:102D00000021018BC1F30E01130641EA1341018337
:102D100070470A460021818B4FF67F73194011439B
:102D2000818370470A460021818BC1F30E0113068F
:102D300041EA1341818370470A460021018C4FF616
:102D4000FD7319401143018470470A460021018C2C
:102D50004FF6F77319401143018470470A4600216A
:102D6000018C4FF6DF731940130541EA13410184CA
:102D700070470A460021018C4FF67F7319401305F6
:102D800041EA1341018470470A460021018C4FF645
:102D9000FF531940130641EA1341018470470A4664
:102DA0000021018C4FF2FF731940130641EA1341D1
:102DB000018470470A460021018C4DF6FF731940CB
:102DC000130741EA13410184704730B50023012401
:102DD0008C40A3B2048CDD43ADB22C400484048C3F
:102DE00002FA01F5ADB22C43048430BD30B50023A6
:102DF00004248C40A3B2048CDD43ADB22C40048487
:102E0000048C02FA01F5ADB22C43048430BD70B5D8
:102E10000346002000241846183001258D40ACB22E
:102E20001D8CE643B6B235401D8409B1082909D18D
:102E300000EB6100056825F0700505600568154325
:102E400005600CE00D1FADB200EB6500056825F4D0
:102E5000E04505600568160645EA1645056070BD43
:102E600021B1028842F00202028004E002884FF69B
:102E7000FD731A400280704721B1028842F00402BB
:102E8000028004E002884FF6FB731A40028070470C
:102E900021B1828842F08002828004E082884FF66D
:102EA0007F731A408280704702884FF6F7731A408A
:102EB000028002880A430280704782884FF68F732F
:102EC0001A40828082880A438280704702894FF6C6
:102ED000F8731A40028102890A430281704702890D
:102EE0004FF67F731A40028102890A4302817047BC
:102EF000818470478185704781867047018770475C
:102F000081877047A0F84010704702884FF6FF4352
:102F10001A40028002880A43028070470146888E68
:102F200070470146088F70470146888F70470146F9
:102F3000B1F8400070470146888C70470146088D03
:102F4000704702460020138A0B4201D0012000E0A6
:102F500000207047CA430282704730B50246002005
:102F600000230024158A05EA0103958905EA010476
:102F700013B10CB1012000E0002030BDCA43028231
:102F80007047000010B50446FC48844209D1012175
:102F90008803FEF767FD00214FF48040FEF762FDD5
:102FA00032E0F748844209D101214804FEF767FD69
:102FB00000214FF40030FEF762FD25E0F148844225
:102FC00009D101218804FEF75AFD00214FF4802029
:102FD000FEF755FD18E0EC48844209D10121C804F0
:102FE000FEF74DFD00214FF40020FEF748FD0BE0F9
:102FF000E648844208D101210805FEF740FD002182
:103000004FF48010FEF73BFD10BD2DE9F04786B070
:1030100005460E460024A24600BFA1460027B089FF
:1030200000B100BF2F462C8A4CF6FF700440F08898
:1030300004432C82AC894EF6F3100440B0883189E9
:103040000843718908430443AC81AC8A4FF6FF40C2
:103050000440B0890443AC8201A8FEF77CFCC74859
:10306000874202D1DDF810A001E0DDF80CA0A889AC
:1030700010F4004F08D00AEBCA0000EB0A103168C8
:103080004900B0FBF1F807E00AEBCA0000EB0A10B8
:1030900031688900B0FBF1F86420B8FBF0F004015E
:1030A0002009642101FB1089A88910F4004F08D081
:1030B000322000EBC900B0FBF1F000F00700044340
:1030C00008E0322000EB09106421B0FBF1F000F0C1
:1030D0000F0004432C8106B0BDE8F0874FF4165171
:1030E000016000218180C18001810C21418100218A
:1030F0008181704710B502460020108A4FF2FF030D
:1031000018400B884C8823438C882343CC88234366
:103110001843108210BD0021018041808180C18050
:10312000704721B1828942F40052828104E0828991
:103130004DF6FF731A4082817047F0B503460024B4
:10314000002600250020A1F510676A3F00D100BFCE
:103150001846C1F3421401F01F06012707FA06F5CD
:10316000012C01D10C3004E0022C01D1103000E020
:1031700014301AB107682F43076002E00768AF43B5
:103180000760F0BD10B51AB1838A0B43838204E057
:10319000838ACC43A4B22340838210BD028A4FF6B7
:1031A000F0731A400282028A0A43028270478289BF
:1031B0004FF2FF731A40828182890A4382817047ED
:1031C00021B1828942F00202828104E082894FF6B5
:1031D000FD731A4082817047028A4FF6DF731A40EE
:1031E0000282028A0A430282704721B1028A42F4B3
:1031F0008042028204E0028A4BF6FF731A40028288
:103200007047C1F308028280704701468888C0F386
:1032100008007047818941F0010181817047028B6C
:10322000D2B20283028B42EA012202837047028BF0
:1032300002F47F420283028B0A430283704721B16A
:10324000828A42F02002828204E0828A4FF6DF7393
:103250001A408282704721B1828A42F01002828233
:1032600004E0828A4FF6EF731A408282704721B1E0
:10327000828A42F00802828204E0828A4FF6F77363
:103280001A408282704721B1828942F400428281D1
:1032900003E08289C2F30E028281704721B1828AE3
:1032A00042F40062828204E0828A4FF2FF731A4085
:1032B00082827047828A4FF6FB731A408282828A2A
:1032C0000A438282704721B1828A42F002028282DE
:1032D00004E0828A4FF6FD731A40828270470246EC
:1032E0000020B1F5007F00D100BF13880B4201D050
:1032F000012000E00020704701F40072B2F5007F69
:1033000000D100BFCA430280704770B50246002456
:10331000002300250020A1F510666A3E00D100BF01
:10332000C1F3421501F01F03012606FA03F3012D34
:1033300002D19689334006E0022D02D1168A33402D
:1033400001E0968A33400C12012606FA04F416882E
:10335000344013B10CB1012000E0002070BD10B565
:1033600000220023A1F510646A3C00D100BF0A12BC
:1033700001249440A3B2DC43048010BD0038014016
:103380000044004000480040004C00400050004015
:103390001FB500F0A9F800F04FFF01200C4908709C
:1033A00000200223CDE90030029003464FF4007262
:1033B00008A103900948FDF75BFAC4B2012C02D0C2
:1033C00007A001F032F9FDF7D9FD00BFFEE70000CC
:1033D0006E000020696E7075740000005D4A000880
:1033E000785461736B43726561746520696E7075A2
:1033F000745F7461736B206572720D0A00000000C7
:10340000704700BFFEE700BFFEE700BFFEE700BF5A
:10341000FEE7704770477047704710B50121880775
:10342000FFF79BFD28B101218807FFF7A7FD00F0FA
:1034300041FA10BD10B5FEF793F94FF48030FEF756
:10344000AFF9FEF7ECF90446012C24D10020FEF779
:1034500028FA0020FEF737FAA002FEF72BFA022026
:10346000FEF74EFB1020FEF75FFB4FF4E011200447
:10347000FEF7FAF90120FEF703FA00BF3920FEF744
:10348000B2F90028FAD00220FEF7FDF900BFFEF7DE
:1034900003FA0828FBD101217D20FEF7C9FA10BDEF
:1034A00079B9154A1268012383409A43124B1A6076
:1034B0001A1D1268012383409A430F4B1B1D1A608B
:1034C00011E00D4A1268012383401A430A4B1A6027
:1034D0001A1D1268012383401A43074B1B1D1A60F3
:1034E0000022064B1A70704710B5FFF7A3FF00F0DB
:1034F000FEF900F0CDF810BD000401406C00002082
:103500007047002105E0002200E0521C0A2AFCD38B
:10351000491C8142F7D3704770B5054614480078BE
:10352000012803D12846FDF79FFB0BE0002407E0AC
:10353000002600E0761C42F210708642FAD3641C2A
:10354000AC42F5D370BD10B504462046FFF7D9FF55
:1035500010BD10B504462046FFF7DEFF10BD10B5C4
:10356000044604EB84014800FFF7D6FF10BD0000BD
:103570006E0000201FB50121C802FEF759FA68202D
:10358000ADF808004820ADF804000020ADF80A00AE
:10359000ADF806008DF80C0001A9B548FEF7EEFE67
:1035A0000121B348FFF7D6FC01221146B048FFF7CE
:1035B0003AFA0021AE48FFF711FA19208DF8000001
:1035C00001208DF801008DF802008DF80300684697
:1035D000FDF7B1FE1FBD70B505460020A549087076
:1035E000A54805700020A54908604FF06800FFF766
:1035F000AAFF002412E0A0480078204100F0010654
:103600001EB900209D49086002E001209B49086026
:103610004FF06800FFF797FF601CC4B2082CEADB8C
:103620003220FFF790FF0120944908604FF06400BA
:10363000FFF789FF70BD70B505460E46002404E013
:10364000285DFFF7C8FF601CC4B2B442F8DB70BD50
:1036500070B504460D4601208949087000210620F6
:10366000FFF71EFF00208349087000218048FFF704
:10367000B5F91420FFF773FF29462046FFF7DBFF5B
:1036800001210620FFF70CFF00207D49087070BD66
:103690001FB57C48007800B11FBD01207949087032
:1036A0008020ADF80C0003208DF80E0014208DF85A
:1036B0000F0003A97448FDF707FF4020ADF80C0088
:1036C00004208DF80F0003A96F48FDF7FDFE0621C9
:1036D0000120FEF70DF84020009000208DF8040036
:1036E0000C208DF8050001208DF806006846FEF7D5
:1036F000F1FC17208DF8080001208DF809008DF8E5
:103700000A008DF80B0002A8FDF715FEFFF732FF47
:1037100000205E49087080215B48FDF780FF0D2185
:103720005BA0FFF795FF00BFB6E710B5002405E0EA
:103730005B48006800B110BD601CC4B20A2CF7DB06
:1037400000210620FFF7ACFE00204A4908705549C9
:103750000870022054490870002054490870012163
:103760004348FFF73BF900BFE5E77FB50446254630
:103770000D2247A1684600F002FA0A2D02DA05F18F
:103780003000C5B28DF80A500D216846FFF760FF82
:103790007FBD10B54020FEF703FD20B14020FEF7AD
:1037A00010FDFFF7C2FF10BD10B501213048FFF733
:1037B000D4FB002841D02F480078082813DA384875
:1037C0000068C4B22B48007804FA00F03549097843
:1037D00040EA0100334908702648007800F10100F2
:1037E0002449087029E02648007800B110BD002067
:1037F0002049087000211E48FFF7F0F8012106203B
:10380000FFF74EFE26480068012813D125480078AE
:1038100027491E4A127888541C480078401C1B49CE
:103820000870084600783F2801DD3F20087001201D
:103830001E49087000201B49087001210C48FFF741
:1038400089FB00BFD2E710B51848007801280DD1D8
:103850001548007850B900200C49087013490870C9
:103860004021134801F01AFA012010BD0020FCE7A6
:10387000002C014076000020770000209C8121422E
:103880007900002072000020000C0140730000202D
:1038900041542B52464D4F44453D320D0A00000025
:1038A000188121427800002074000020750000205B
:1038B0007845002010B52B480078401C2949087035
:1038C00008460078022811DB00200870264800789E
:1038D00060B125480078401E2349087008460078EA
:1038E00020B901229103104600F006FC10BD1FB55F
:1038F0004FF08040FEF76EFC01210846FEF7A5F868
:1039000042F21070ADF804004820ADF8000000202D
:10391000ADF80600ADF8020069464FF08040FEF7B2
:103920002DFD41F28831C806FFF7E4FA012188072E
:10393000FFF75CF9012211469007FFF774F80121A7
:103940008807FFF74BF81C208DF80C0000208DF83D
:103950000D008DF80E0001208DF80F0003A8FDF773
:10396000EAFC1FBD7A00002074000020F0B5034679
:103970000C4615462046014600BFB3FBF5F705FB94
:103980001737FAB2B3FBF5F3092A04DD02F1570742
:1039900000F8017B03E002F1300700F8017B002B07
:1039A000EBD1002700F8017900BF06780F78077087
:1039B0000E70401E491C8142F7D3F0BD30B503465E
:1039C0000C46002007E0195C0D0145EA2115E9B21B
:1039D0001154451CA8B2A042F5DB30BD01460020C1
:1039E00000E0401C11F8013B002BFAD1704770B584
:1039F00004460D462846FFF7F1FF060001D1204698
:103A000070BD0CE020782978884207D132462946DB
:103A1000204601F079F808B92046F1E7641C2078C7
:103A20000028EFD100BFEBE7F0B504460D4616467F
:103A3000002113E00127002208E08818205C16F816
:103A400002C0604500D00027501CC2B29A42F4DB8D
:103A5000012F01D16018F0BD481CC1B2A942E9DBB9
:103A60000020F8E710B503460C46002107E0585C3B
:103A7000904202D1481CC0B210BD481CC1B2A14244
:103A8000F5DB0020F8E730B502460B4600200021A8
:103A900013E0555C302D0ADB555C392D07DC555C95
:103AA000303DECB200EB800504EB450003E0555CD3
:103AB000202D00D003E04D1CE9B20A29E9DB00BF4C
:103AC000197030BD2DE9F04705460E4617469C4655
:103AD00000229046002000212CE06B5C412B05DB8E
:103AE0005A2B03DC03F1200909F0FF03BC5C412CD5
:103AF00005DB5A2C03DC04F1200909F0FF04A34282
:103B000013D102B9884602F1010909F0FF026245AA
:103B10000CDBA6EB08091FFA89F005EB0809DFF8B2
:103B200014A4CAF80090BDE8F087002201F1010951
:103B300009F0FF01B142D0DB4FF00009DFF8F4A338
:103B4000CAF8009000BFEEE770B505460B46144674
:103B50000BB9002070BDF84803800021002208E066
:103B600000206054AE5C481C2654881C81B2501C56
:103B700082B2F14800888242F2DB0846EAE710B5DB
:103B80000346002003E00C5C1C54441CA0B290428D
:103B9000F9DB10BDF0B503460E460021002410E00D
:103BA000355DE64800EB251000785054481C81B282
:103BB00005F00F00E14F385C5054481C81B2601C86
:103BC00084B29C42ECDB002050545804000CF0BD41
:103BD0002DE9FC4107460E46904616B90020BDE887
:103BE000FC81D74806800025002416E000208DF8CF
:103BF0000000385D8DF801000DF1020269460220D7
:103C0000FFF7C8FF08EB050004220DF10201FFF7E2
:103C1000B6FF281D85B2601C84B2C9480088844262
:103C2000E4DB2846DBE770B504460D4600200021A2
:103C300008E0635C13B11354461CB0B2002616545E
:103C40004E1CB1B2A942F4DB70BD70B505460C46FE
:103C50002E4605B10CB9002070BD2046FFF7BEFE10
:103C600018B9002028702846F6E700BF207806F82B
:103C7000010B14F8011B0029F8D12846ECE7F0B538
:103C8000054628460E782B2E02D1491C461EB0B29E
:103C9000064600EBD6777F10A0EB4707FCB2002C5E
:103CA00001DD461CB0B2064600EBD6777810002343
:103CB00063E00E78302E07DB0E78392E04DC0E78A8
:103CC0003607360E16701EE00E78412E08DB0E7891
:103CD000462E05DC0E78F61F3607360E167012E0FB
:103CE0000E78612E08DB0E78662E05DC0E78F61F46
:103CF0003607360E167006E00E780F2E03DC0E78AF
:103D00003607360E1670461E9E4206D1002C04DD84
:103D1000167846F00F06167031E0491C0E78302EEA
:103D200008DB0E78392E05DC16780F78303F3E43DD
:103D300016701EE00E78412E08DB0E78462E05DC4C
:103D400017780E78373E3743177012E00E78612EE1
:103D500008DB0E78662E05DC17780E78573E374361
:103D6000177006E00E780F2E03DC16780F783E43AE
:103D70001670491C521C5E1CB3B2834299DB00BF13
:103D8000F0BDF0B50346D8B200EBD07C4FEA6C052D
:103D9000D8B200EBD07C4FEA6C0CA0EB4C0C0CF0D2
:103DA000FF04002709E011F8016B11F8010B02F87C
:103DB000010B02F8016B781C87B2AF42F3DB2CB128
:103DC000462002F8010B087802F8010B0020107061
:103DD00028194000F0BD0246002115E0594810F8AE
:103DE0001100904204D1574800EB410040787047E1
:103DF000544800EB41004078904203D1514810F8FC
:103E00001100F4E7481CC1B21229E7DBFF20EEE7FE
:103E10002DE9F04104460D46069F0021002011E0E7
:103E200014F800C012F801808CEA08063E5401F133
:103E3000010C1FFA8CF1994200D1002100F1010C14
:103E40001FFA8CF0A842EBDBBDE8F08130B50446E8
:103E50000D46002305E0E05CFFF7BDFFE054581C71
:103E600083B2AB42F7DB30BDF0B506460B461446D5
:103E700000211EE0755C002215E0334810F81200A6
:103E8000A84204D1304800EB420045780DE02E48AE
:103E900000EB42004078A84203D12B4810F81250A2
:103EA00003E0501C82B2052AE7DB00BF6554481CC2
:103EB00081B29942DEDB184603EBD07C4FEA6C0CF2
:103EC000A3EB4C0C0CF0FF07002F03DD46206054E1
:103ED000481C81B200206054C8B2F0BD2DE9F04FFB
:103EE0008046894617463A4641464846FFF752FE05
:103EF000824600253FE04FF0000B7C5D302C05DB57
:103F0000392C03DCA4F1300084B22CE0412C05DB19
:103F1000462C03DCA4F1370084B224E000261FE025
:103F20000A48805DA04219D10A2E11DA06F130004C
:103F3000785510E0800000207C000020C64E00086C
:103F40007E000020D74E0008FB4E0008054F0008F9
:103F500006F1370078554FF0010B03E0701C86B274
:103F6000102EDDDB00BFBBF1000F02D15F48005D0A
:103F70007855681C85B25545BDDB0AF0FF00BDE8E9
:103F8000F08F10B502460B460020002103E0545C80
:103F900060404C1CE1B29942F9DB10BDF0B503461C
:103FA0000D460020002210E0995C7F2901DDFF29E9
:103FB00003DB002907DD202905DA0D2903D00A29B2
:103FC00001D0012003E0571CBAB2AA42ECDB00BFCB
:103FD000A0B9002400220BE01F5D0FB9012603E009
:103FE000012E01D1012008E0A71CBCB2571CBAB2B7
:103FF00005EBD57CB2EB6C0FEEDB00BF68B900249B
:10400000002206E0995C11B11955671CBCB2571C1F
:10401000BAB2AA42F6DB00271F55F0BD10B5024622
:10402000002309E010780C78A04201D0012010BDD7
:10403000521C491C581CC3B2087810B110780028D3
:10404000F0D1087818B9107808B90020EFE70120FE
:10405000EDE710B5044600BF80212548FFF73FF982
:104060000028F9D021462248FFF7CBF810BD10B543
:10407000044603E014F8010BFFF7EBFF207800285B
:10408000F8D110BD2DE9F04707460125A846002FBD
:1040900005DA18A0FFF7EBFF7842C6B200E0FEB2E7
:1040A000002408E005EB85004500AE4200DA04E09C
:1040B00008F10108641C0A2CF4DB00BF002411E0A5
:1040C0000A2095FBF0F596FBF5F000F0FF0996FB52
:1040D000F5F005FB1060C6B209F13000C0B2FFF781
:1040E000B8FF641C4445EBDBBDE8F087054F0008D2
:1040F000003801402D0000002DE9FC4105460E4628
:1041000017465B48007810B94046BDE8FC8146EA96
:104110000540019047B900231A4601A95548006897
:10412000FCF7BBF9044609E00020009000236A4632
:1041300001A950480068FCF715FA0446012C01D08B
:104140000120E2E70020E0E72DE9F84F06460F46A0
:10415000B94600234A46694646480068FCF754FAC7
:104160008246BAF1010F02D00120BDE8F88F009815
:104170004FEA10484048416808200C1A14E0002516
:104180000DE00121A94060680840404505D10023A9
:104190001A4669462068FCF780F9681CC5B2102DE4
:1041A000EFDB0820E1680C1A04F10800324988426C
:1041B00001D0012000E000200028E0D1009830600C
:1041C0000020D2E710B51020FCF7CAFF04460CB956
:1041D000002010BD04210A20FCF7ACF820600CB9C7
:1041E0000020F6E7244904F1080000F051F82046C9
:1041F000EFE70246506808435060002070472DE901
:10420000F04104460E4615462F4600233A463146F5
:104210002068FCF7F9F98046B8F1010F02D00120BF
:10422000BDE8F0810020FBE708B504E04CF2503116
:104230006846FFF789FFF9E71FB504210A20FCF75C
:1042400079F80C4908600846006810B9012004B0EC
:1042500010BD00200323CDE90030029003468022E8
:1042600006A10390AFF23F00FCF702FB0020EEE74F
:104270008C00002090000020840000206D736700F7
:1042800000604060704750600260416008607047A5
:1042900070B505460C46214628462268FFF7F3FF15
:1042A00070BD70B505460C46224628466168FFF78A
:1042B000EAFF70BD48600160704710B50446D4E95C
:1042C0000010FFF7F7FF00202060606010BD02685B
:1042D0000A600A68516042684A604A681160704723
:1042E00070B504460D4629462046FFF7F0FF2046EC
:1042F000FFF7C6FF70BD10B50446D4E90010FFF704
:10430000D9FF2046FFF7BCFF10BD70B504460D462F
:10431000D4E90010FFF7CEFF29462046FFF7B8FF8B
:1043200070BD70B504460D46D4E90010FFF7C2FF1A
:1043300029462046FFF7B5FF70BD02461068884247
:1043400001D1012070470020FCE70146086888423F
:1043500001D1012070470020FCE701460A688A422B
:1043600004D14868904201D1012070470020FCE749
:1043700010B504462046FFF7E8FF28B9D4E900014C
:10438000884201D1012010BD0020FCE710B5136860
:104390000C68046004686060426010600B605960E3
:1043A00010BD70B506460C4615462046FFF7CDFFFA
:1043B00000B170BD2046FFF7DBFF28B12068A8429E
:1043C00002D0AC4200D0F4E7A54203D13046FFF75B
:1043D00057FF04E02A4621463046FFF7D7FF00BFCB
:1043E000E7E730B50368446859600B6022605460A9
:1043F00030BD70B505460C462846FFF7A6FF20B92C
:10440000214628462268FFF7ECFF70BD70B50546CF
:104410000C462846FFF799FF20B9224628466168D6
:10442000FFF7DFFF70BD70B505460C462846FFF765
:104430008CFF38B9214628462268FFF7D2FF28466C
:10444000FFF71EFF70BD70B505460C462846FFF706
:104450007CFF38B9224628466168FFF7C2FF28462C
:10446000FFF70EFF70BD000010B504462146F94865
:10447000FEF7C7FE00BF8021F648FEF730FF002898
:10448000F9D010BD10B500BF2021F248FEF727FF7C
:104490000028F9D0EF48FEF7B8FEC0B210BD70B5E5
:1044A0000446250904F00F060A2D05DA05F130004F
:1044B000C0B2FFF7D9FF04E005F13701C8B2FFF73A
:1044C000D3FF0A2E05DA06F13000C0B2FFF7CCFFA9
:1044D00004E006F13701C8B2FFF7C6FF70BD70B542
:1044E0000546DD48006890B18DB1DC480068DC49C4
:1044F000096888420BDAD948046804E0D948007892
:10450000FFF7B2FF641CD64800688442F6DB70BD3A
:1045100010B50446204600F0D8FAD0490860D249C8
:10452000096809B9012100E000210846FFF7D7FF1B
:1045300003E014F8010BFFF797FF207838B1CB4860
:1045400001680068401EC94A10600029F1D1204668
:1045500000F0BBFAC1490860C3480068FFF7BFFF1D
:1045600010BDF0B58DB005460F4616461422C0A109
:10457000684600F059FB05AC00BFB5FBF6F006FB42
:1045800010501DF8000004F8010BB5FBF6F0050013
:10459000F3D117B12D2004F8010B002004F8010914
:1045A00005A800F092FAAD490860AF49096809B959
:1045B000012100E000210846FFF791FF03E014F815
:1045C0000109FFF751FF05A88442F8D2A648006808
:1045D000FFF785FF0DB0F0BD2DE9F04104460E4612
:1045E0001746002C03DA17B10125644200E00025CC
:1045F000324629462046FFF7B4FFBDE8F08170B58A
:10460000054600262C6806E014F8010B303806EB4E
:10461000860100EB410600F043FA00682178405C17
:104620002028F1D02C60304670BD0FB4F8B507A833
:104630000090C1E00698007825280BD006990878EC
:10464000FFF712FF069800780A2802D10D20FFF725
:104650000BFFAEE0002600250020834908607E495C
:10466000086020207F49087047F6FF707F49086086
:1046700000BF0698401C0690047800F011FA00680C
:10468000005D202817D12EB106A8FFF7B8FF7749A3
:1046900008600CE0302C02D130207249087006A866
:1046A000FFF7ADFF6E49086001206B49086006986E
:1046B000401E0690DDE7204600F0FAF964281CD081
:1046C00008DC25280DD02D280FD02E2811D06328E6
:1046D0006CD164E06C280ED073285AD0782865D14C
:1046E00031E02520FFF7C0FE63E001205E4908604D
:1046F0005DE001265BE0012559E0012D11D1442C3C
:1047000007D1009901C9002200910A21FFF764FF37
:104710004FE0009901C9012200910A21FFF75CFFD7
:1047200047E0442C07D1009901C9002200910A21D9
:10473000FFF752FF3DE0009901C9012200910A21D3
:10474000FFF74AFF35E0012D11D1582C07D1009910
:1047500001C9002200911021FFF73EFF29E00099D6
:1047600001C9012200911021FFF736FF21E0582CEA
:1047700007D1009901C9002200911021FFF72CFFF9
:1047800017E0009901C9012200911021FFF724FFD1
:104790000FE0009901C90091FFF7BAFE09E0009906
:1047A00004C9D0B20091FFF75FFE02E001E000BF54
:1047B0005FE70698401C06900698007800287FF472
:1047C00039AF0090F8BC5DF814FBFEB505462E46E7
:1047D0000A240CE00A20B6FBF0F100FB1160303037
:1047E0000DF804000A20B6FBF0F6601E44B2002C5F
:1047F000F0DA00208DF80B009DF8000030286CD115
:104800009DF80100302863D19DF8020030285AD16C
:104810009DF80300302851D19DF80400302849D17B
:104820009DF80500302840D19DF80600302837D18A
:104830009DF8070030282ED19DF80800302826D199
:104840009DF8090030281DD10DF10A00FFF7EDFE9B
:1048500046E0000000380140940000209C00002049
:10486000A0000020A800002098000020A400002044
:104870003031323334353637383941424344454696
:10488000000000000DF10900FFF7CFFE28E002A8AC
:10489000FFF7CBFE24E00DF10700FFF7C6FE1FE097
:1048A0000DF10600FFF7C1FE1AE00DF10500FFF75C
:1048B000BCFE15E001A8FFF7B8FE11E00DF1030002
:1048C000FFF7B3FE0CE00DF10200FFF7AEFE07E0CC
:1048D0000DF10100FFF7A9FE02E06846FFF7A5FE13
:1048E000FEBD70B50024002500264FE0FFF7CAFD8D
:1048F0000446302C4ADB392C48DC2046FFF7B4FD57
:10490000701CC6B2092E3ED2DFE806F03D05080F46
:10491000161D242B3200A4F1300536E0A4F130003E
:1049200005EB850100EB41052FE0A4F1300005EB1C
:10493000850100EB410528E0A4F1300005EB85017D
:1049400000EB410521E0A4F1300005EB850100EB0F
:1049500041051AE0A4F1300005EB850100EB4105AB
:1049600013E0A4F1300005EB850100EB41050CE0FC
:10497000A4F1300005EB850100EB41050026202065
:10498000FFF772FD01E0002600BF00BF0D2CADD186
:10499000284670BD70B5054600241DE000BF2021EB
:1049A0002C48FEF79CFC0028F9D02A48FEF72DFC85
:1049B000C2B22046611CCCB22A54601E295C26A0DB
:1049C000FFF733FE601E285C0D2805D1601EC4B2BF
:1049D00000202855204670BDE0E770B5054600244C
:1049E0001FE000BF20211B48FEF779FC0028F9D00A
:1049F0001848FEF70AFCC2B22046611CCCB22A5409
:104A0000601E295C14A0FFF710FE601E285C0D28B4
:104A100003D0601E285C202803D1601EC4B220464B
:104A200070BDDEE7F0B504460D4626462F469A4295
:104A300001D00020F0BD002108E0705C17F801C033
:104A4000604501D00020F5E7481CC1B29142F4DB7B
:104A50000120EFE7003801402563000008B5FFF7AB
:104A6000B1FB054601212846FFF7C3FB01200B4996
:104A7000087011E04FF47A7269462846FFF7BFFBD1
:104A8000044604B108E00098B0F5A03F02D1FEF75B
:104A9000DAFE00BF00BF00BFECE700008C00002082
:104AA00010B500F04BF9001D10BD00BFE103000080
:104AB00010B50446FFF7F4FF0068005DC00602D59C
:104AC00004F1200010BD204610BD10B5431C02E0CB
:104AD00010F8011B71B18107FAD14FF0013202C801
:104AE0008C1A8C4314EAC211F9D0C01A0A0603D0FA
:104AF000C01E10BDC01A10BD0A0401D0801E10BD1A
:104B00000902FCD0401E10BD40EA010370B59B07AE
:104B10002ED14FF00136042A2AD308C810C9121F1B
:104B20009D1B9D4315EAC61517D0D8B2E1B2401AB5
:104B300050EA056110D198B2A1B2401A50EA05417D
:104B40000AD123F07F4024F07F41401A50EA05212A
:104B500002D1180EA0EB146070BDA342DBD018BACE
:104B600021BA884201D9012070BD4FF0FF3070BDDD
:104B70000AB9002070BD10F8013B11F8014B63B178
:104B8000A3420AD1521E08D010F8013B11F8014B84
:104B90001BB1A34201D1521EEDD1181B70BD032AD7
:104BA00040F2308010F0030C00F0158011F8013B4A
:104BB000BCF1020F624498BF11F801CB00F8013B31
:104BC00038BF11F8013BA2F1040298BF00F801CBF5
:104BD00038BF00F8013B11F0030300F02580083ACC
:104BE000C0F0088051F8043B083A51F804CBA0E823
:104BF0000810F5E7121D5CBF51F8043B40F8043B78
:104C0000AFF30080D20724BF11F8013B11F801CBAC
:104C100048BF11F8012B24BF00F8013B00F801CB7D
:104C200048BF00F8012B704710B5203AC0F00B8048
:104C3000B1E81850203AA0E81850B1E81850A0E8A0
:104C40001850BFF4F5AF5FEA027C24BFB1E81850FA
:104C5000A0E8185044BF18C918C0BDE810405FEA6A
:104C6000827C24BF51F8043B40F8043B08BF7047E6
:104C7000D20728BF31F8023B48BF11F8012B28BFEB
:104C800020F8023B48BF00F8012B704702F0FF03F9
:104C900043EA032242EA024200F002B84FF0000267
:104CA0000429C0F0128010F0030C00F04D80CCF10C
:104CB000040CBCF1020F18BF00F8012BA8BF20F8AC
:104CC000022BA1EB0C0100F03FB85FEAC17C24BFCE
:104CD00000F8012B00F8012B48BF00F8012B7047AA
:104CE00010B5044610F0030F08BF11F0030F40F099
:104CF00015804FF0013E121FC0F20E8051F8043BA8
:104D0000A3EB0E0C2CEA030C1CEACE1C08BF40F8E7
:104D1000043BF0D0A1F1040102F10402521E08DBB1
:104D200011F8013B002B00F8013BF7D11146FFF7CA
:104D3000B5FF204610BD7047704770470048704768
:104D4000D84500204FF0000200B513469446964621
:104D5000203922BFA0E80C50A0E80C50B1F120018E
:104D6000BFF4F7AF090728BFA0E80C5048BF0CC03C
:104D70005DF804EB890028BF40F8042B08BF70479A
:104D800048BF20F8022B11F0804F18BF00F8012B0C
:104D90007047000000487047B84500204FF0013CC4
:104DA00050F8042B51F8043B9A4221D1A2EB0C039A
:104DB000934313EACC1317D150F8042B51F8043B5A
:104DC0009A4215D1A2EB0C03934313EACC130BD1F7
:104DD00050F8042B51F8043B9A4209D1A2EB0C0382
:104DE000934313EACC13DBD04FF00000704700BFB1
:104DF000D01A01BAB1FA81F101F0180122FA01F0DA
:104E0000CB40C1F12001DBB2C0B2C01A2CFA01F3D1
:104E1000D11A914311EAC311E6D170477546FFF7E5
:104E2000B9FFAE4605006946534620F007008546A7
:104E300018B020B5FBF726FABDE820404FF0000679
:104E40004FF000074FF000084FF0000B21F0070172
:104E5000AC46ACE8C009ACE8C009ACE8C009ACE8B5
:104E6000C0098D4670470446AFF300802046FBF72B
:104E7000B1F9000000487047BC45002001491820E6
:104E8000ABBEFEE7260002007047000010B5002907
:104E90000AD00878002807D005487844FFF77EFF3D
:104EA000002801D0002010BD0248784410BD000049
:104EB0009E0000009600000010B5FFF7DBFF4FF0EA
:104EC0000001016010BD30313233343536373839A6
:104ED0004142434445460030414331474532494B06
:104EE0004D4F335153345559575A355658365452FD
:104EF000504E374A4C384846444239412C422A43A6
:104F000023443B453F4153444647484A4B4C5A583B
:104F10004356424E4D00000048500008000000205B
:104F2000AC0000006C010008F4500008AC00002048
:104F30006C490000880100081001000043000000D7
:104F4000F8FFFFFF004040404040404040404141AA
:104F5000414141404040404040404040404040404E
:104F600040404040400502020202020202020202E8
:104F700002020202022020202020202020202002E5
:104F80000202020202029090909090901010101075
:104F90001010101010101010101010101010101011
:104FA00002020202020288888888888808080808A5
:104FB0000808080808080808080808080808080871
:104FC0000202020240000000000000000000000099
:104FD00000000000000000000000000000000000D1
:104FE00000000000000000000000000000000000C1
:104FF00000000000000000000000000000000000B1
:1050000000000000000000000000000000000000A0
:105010000000000000000000000000000000000090
:105020000000000000000000000000000000000080
:105030000000000000000000000000000000000070
:105040000000000000000000000000000000000060
:105050000000000000000000000000000000000050
:105060000000000000000000000000000000000040
:105070000000000000000000FFFFFFFF0000000034
:1050800000000000004400000000000000000000DC
:10509000000000000000000000000000AAAAAAAA68
:1050A00000000000010203040102030406070809CE
:1050B00002040608000000000000000000000000DC
:1050C000000000000000000000000000840000203C
:1050D000840000200000000000000000000000002C
:1050E00000000000000000000000000000000000C0
:0450F00000000000BC
:0400000508000131BD
:00000001FF
